:020000040000FA
:020000000528D1
:040002000034003492
:0200080054287A
:06000A0003178312003011
:10001000A1000130C8000230A8000330980004306D
:10002000C4000530A400063094000730C200083038
:10003000A200093092000313BB30FA00BE30FB006F
:100040007830F1000A30F20007308600870189011C
:100050000430F0002030F700831603137830860058
:100060008701890185010514811281138316031705
:100070008901013088008312031341309F008316E9
:10008000031380309F0048308B00831603137830B1
:1000900096000C148B178312031307308600751813
:1000A00068207E1865204F28F400030EF3008312A9
:1000B00003130B18F5090C18652086080B100C109B
:1000C000730E8300F40E740E09008B1510100800D7
:1000D0008E018F0110148B11F50983120313860111
:1000E000061471080605031D78280310860D712873
:1000F0007A0806050319D0287B080605031981280C
:100100009728F90A720879060319F9019F140C1F40
:1001100087280C13831603131E08F8008312031399
:1001200077088400790884077808800008000608AA
:1001300003178312840000080313840077088407E0
:100140000008F8000F307805FC00F0307805FD005D
:10015000FD0E7C08B82087000914C92009107D080D
:10016000B82087008914C920891075180800A928AB
:1001700082073F3406345B344F3466346D347D344B
:1001800007347F34673477341F344E343D344F3472
:100190004734B23081000B19CB280B1189100800AD
:1001A0000A30F600F60BD828770884008001D228A0
:1001B0000919DC280915E3280911F00BE3281010B0
:1001C0000430F000080000308E0080308F001014E2
:0601D0000C1CE828D828F1
:02400E00E43F8D
:02401000FF3F70
:00000001FF
