:020000040000FA
:020000000528D1
:040002000034003492
:020008004D2881
:06000A0003178312003011
:10001000A1000130C8000230A8000330980004306D
:10002000C4000530A400063094000730C200083038
:10003000A200093092000313BB30FA00BE30FB006F
:100040007830F1000A30F20007308600870189011C
:100050000430F0002030F700831603137830860058
:1000600087018901831603178901013088008312F3
:10007000031341309F0083160313803048308B00F8
:1000800083160313783096000C148B178312031316
:10009000751861207E185E204628F400030EF300D8
:1000A000831203130B18F5090C185E2086080B1039
:1000B0000C10730E8300F40E740E09008B151010D3
:1000C00008008E018F0110148B11F50983120313A0
:1000D0008601061471080605031D71280310860D9C
:1000E0006A287A0806050319C9287B08060503193A
:1000F0007A289028F90A720879060319F9019F14E1
:100100000C1F80280C13831603131E08F80083129B
:1001100003137708840079088407780880000800B2
:10012000060803178312840000080313840077086D
:1001300084070008F8000F307805FC00F0307805DF
:10014000FD00FD0E7C08B12087000914C2200910B3
:100150007D08B12087008914C22089107518080015
:10016000A22882073F3406345B344F3466346D3442
:100170007D3407347F34673477341F344E343D3454
:100180004F344734B23081000B19C4280B11891049
:1001900008000A30F600F60BD128770884008001A9
:1001A000CB280919D5280915DC280911F00BDC2802
:1001B00010100430F000080000308E0080308F00F6
:0801C00010140C1CE128D128E9
:02400E00E43F8D
:02401000FF3F70
:00000001FF
